{
    "contractName": "DefaultTest111",
    "abi": [
        {
            "constant": false,
            "inputs": [
                {
                    "name": "n",
                    "type": "string"
                }
            ],
            "name": "set",
            "outputs": [],
            "payable": false,
            "stateMutability": "nonpayable",
            "type": "function"
        },
        {
            "constant": true,
            "inputs": [],
            "name": "get",
            "outputs": [
                {
                    "name": "",
                    "type": "string"
                }
            ],
            "payable": false,
            "stateMutability": "view",
            "type": "function"
        },
        {
            "inputs": [],
            "payable": false,
            "stateMutability": "nonpayable",
            "type": "constructor"
        },
        {
            "anonymous": false,
            "inputs": [
                {
                    "indexed": false,
                    "name": "paramsStr",
                    "type": "string"
                },
                {
                    "indexed": false,
                    "name": "operationTimeStamp",
                    "type": "uint256"
                }
            ],
            "name": "SetEvent",
            "type": "event"
        }
    ],
    "bytecode": "608060405234801561001057600080fd5b5060408051808201909152600d8082527f48656c6c6f2c20576f726c64210000000000000000000000000000000000000060209092019182526100559160009161005b565b506100f6565b828054600181600116156101000203166002900490600052602060002090601f016020900481019282601f1061009c57805160ff19168380011785556100c9565b828001600101855582156100c9579182015b828111156100c95782518255916020019190600101906100ae565b506100d59291506100d9565b5090565b6100f391905b808211156100d557600081556001016100df565b90565b610348806101056000396000f30060806040526004361061004b5763ffffffff7c01000000000000000000000000000000000000000000000000000000006000350416634ed3885e81146100505780636d4ce63c146100ab575b600080fd5b34801561005c57600080fd5b506040805160206004803580820135601f81018490048402850184019095528484526100a99436949293602493928401919081908401838280828437509497506101359650505050505050565b005b3480156100b757600080fd5b506100c06101ed565b6040805160208082528351818301528351919283929083019185019080838360005b838110156100fa5781810151838201526020016100e2565b50505050905090810190601f1680156101275780820380516001836020036101000a031916815260200191505b509250505060405180910390f35b8051610148906000906020840190610284565b507fedf5e4fbc41240253887c57b73bdead5653cd408f92653efbb6cb02835878f1d81426040518080602001838152602001828103825284818151815260200191508051906020019080838360005b838110156101af578181015183820152602001610197565b50505050905090810190601f1680156101dc5780820380516001836020036101000a031916815260200191505b50935050505060405180910390a150565b60008054604080516020601f60026000196101006001881615020190951694909404938401819004810282018101909252828152606093909290918301828280156102795780601f1061024e57610100808354040283529160200191610279565b820191906000526020600020905b81548152906001019060200180831161025c57829003601f168201915b505050505090505b90565b828054600181600116156101000203166002900490600052602060002090601f016020900481019282601f106102c557805160ff19168380011785556102f2565b828001600101855582156102f2579182015b828111156102f25782518255916020019190600101906102d7565b506102fe929150610302565b5090565b61028191905b808211156102fe57600081556001016103085600a165627a7a72305820ea63653f856c0636f60152ad667ef01afaedad6d29f83fa45e5d0cc90df7cea60029",
    "sourcePath": "e:/WeChat/WeChat Files/wxid_von8p9935vat22/FileStorage/File/2022-09/DefaultTest222/DefaultTest111.sol",
    "compiler": {
        "name": "solc",
        "version": "0.4.25+commit.59dbf8f1"
    },
    "functionHashes": {
        "get()": "6d4ce63c",
        "set(string)": "4ed3885e"
    },
    "gasEstimates": {
        "creation": {
            "codeDepositCost": "168000",
            "executionCost": "infinite",
            "totalCost": "infinite"
        },
        "external": {
            "get()": "infinite",
            "set(string)": "infinite"
        }
    }
}